:020000040800F2
:1000000000000120790E0008CB480008CD48000808
:10001000CF480008D1480008D3480008000000007D
:10002000000000000000000000000000B5320008E1
:10003000D5480008000000007D330008D7480008BC
:10004000C10E0008C10E0008C10E0008C10E000854
:10005000C10E0008C10E0008C10E0008C10E000844
:10006000C10E0008C10E0008C10E0008C10E000834
:10007000C10E0008C10E0008C10E0008C10E000824
:10008000C10E0008C10E0008C10E0008C10E000814
:10009000E5480008C10E0008C10E0008C10E0008A6
:1000A000C10E0008C10E0008C10E0008C10E0008F4
:1000B000C10E0008C10E0008C10E0008C10E0008E4
:1000C000C10E0008C10E0008C10E0008C10E0008D4
:1000D000C10E0008C10E0008C10E0008C10E0008C4
:1000E000C10E0008C10E0008C10E0008C10E0008B4
:1000F000C10E0008C10E0008C10E0008C10E0008A4
:10010000C10E0008C10E0008C10E0008C10E000893
:10011000C10E0008C10E0008C10E0008C10E000883
:10012000C10E0008C10E0008C10E0008C10E000873
:1001300000000000000000000000000000000000BF
:1001400000000000000000000000000000000000AF
:10015000000000000000000000000000000000009F
:10016000000000000000000000000000000000008F
:10017000000000000000000000000000000000007F
:10018000000000000000000000000000000000006F
:10019000000000000000000000000000000000005F
:1001A000000000000000000000000000000000004F
:1001B000000000000000000000000000000000003F
:1001C000000000000000000000000000000000002F
:1001D000000000000000000000000000000000001F
:0401E0005FF8E0F1F3
:1001E80010B5054C237833B9044B13B10448AFF369
:1001F80000800123237010BDCC0600200000000001
:10020800788F000808B5034B1BB103490348AFF3C7
:10021800008008BD00000000D0060020788F00088C
:10022800034613F8012B002AFBD1181A013870472E
:1002380081F0004102E000BF83F0004330B54FEA8F
:1002480041044FEA430594EA050F08BF90EA020FFC
:100258001FBF54EA000C55EA020C7FEA645C7FEA8F
:10026800655C00F0E2804FEA5454D4EB5555B8BFB2
:100278006D420CDD2C4480EA020281EA030382EA23
:10028800000083EA010180EA020281EA0303362DB5
:1002980088BF30BD11F0004F4FEA01314FF4801C88
:1002A8004CEA113102D0404261EB410113F0004F9A
:1002B8004FEA03334CEA133302D0524263EB430351
:1002C80094EA050F00F0A780A4F10104D5F1200EEF
:1002D8000DDB02FA0EFC22FA05F2801841F100014A
:1002E80003FA0EF2801843FA05F359410EE0A5F11E
:1002F80020050EF1200E012A03FA0EFC28BF4CF04F
:10030800020C43FA05F3C01851EBE37101F0004504
:1003180007D54FF0000EDCF1000C7EEB00006EEB11
:100328000101B1F5801F1BD3B1F5001F0CD349089B
:100338005FEA30004FEA3C0C04F101044FEA4452F2
:1003480012F5800F80F09A80BCF1004F08BF5FEA79
:10035800500C50F1000041EB045141EA050130BD59
:100368005FEA4C0C404141EB010111F4801FA4F1FC
:100378000104E9D191F0000F04BF01460020B1FA51
:1003880081F308BF2033A3F10B03B3F120020CDA89
:100398000C3208DD02F1140CC2F10C0201FA0CF067
:1003A80021FA02F10CE002F11402D8BFC2F1200CCC
:1003B80001FA02F120FA0CFCDCBF41EA0C01904082
:1003C800E41AA2BF01EB0451294330BD6FEA0404CB
:1003D8001F3C1CDA0C340EDC04F11404C4F12002B6
:1003E80020FA04F001FA02F340EA030021FA04F3C8
:1003F80045EA030130BDC4F10C04C4F1200220FA1F
:1004080002F001FA04F340EA0300294630BD21FA5C
:1004180004F0294630BD94F0000F83F4801306BF22
:1004280081F480110134013D4EE77FEA645C18BF16
:100438007FEA655C29D094EA050F08BF90EA020FAD
:1004480005D054EA000C04BF1946104630BD91EAA5
:10045800030F1EBF0021002030BD5FEA545C05D1A8
:100468004000494128BF41F0004130BD14F58004E7
:100478003CBF01F5801130BD01F0004545F0FE415B
:1004880041F470014FF0000030BD7FEA645C1ABF90
:10049800194610467FEA655C1CBF0B46024650EAC7
:1004A800013406BF52EA033591EA030F41F40021F3
:1004B80030BD00BF90F0000F04BF0021704730B579
:1004C8004FF4806404F132044FF000054FF000014E
:1004D80050E700BF90F0000F04BF0021704730B50F
:1004E8004FF4806404F1320410F0004548BF4042E4
:1004F8004FF000013EE700BF42004FEAE2014FEA39
:1005080031014FEA02701FBF12F07F4393F07F4F13
:1005180081F06051704792F0000F14BF93F07F4F45
:10052800704730B54FF4607401F0004521F0004188
:1005380020E700BF50EA010208BF704730B54FF00E
:1005480000050AE050EA010208BF704730B511F013
:10055800004502D5404261EB41014FF4806404F14B
:1005680032045FEA915C3FF4DCAE4FF003025FEACD
:10057800DC0C18BF03325FEADC0C18BF033202EB55
:10058800DC02C2F1200300FA03FC20FA02F001FAAF
:1005980003FE40EA0E0021FA02F11444C1E600BF4E
:1005A80070B54FF0FF0C4CF4E06C1CEA11541DBF01
:1005B8001CEA135594EA0C0F95EA0C0F00F0DEF8CC
:1005C8002C4481EA030621EA4C5123EA4C5350EAB1
:1005D800013518BF52EA033541F4801143F4801302
:1005E80038D0A0FB02CE4FF00005E1FB02E506F093
:1005F8000042E0FB03E54FF00006E1FB03569CF0E8
:10060800000F18BF4EF0010EA4F1FF04B6F5007FED
:1006180064F5407404D25FEA4E0E6D4146EB06065F
:1006280042EAC62141EA55514FEAC52040EA5E50E8
:100638004FEACE2EB4F1FD0C88BFBCF5E06F1ED892
:10064800BEF1004F08BF5FEA500E50F1000041EBC9
:10065800045170BD06F0004646EA010140EA020076
:1006680081EA0301B4EB5C04C2BFD4EB0C0541EA98
:10067800045170BD41F480114FF0000E013C00F3AD
:10068800AB8014F1360FDEBF002001F0004170BDD1
:10069800C4F10004203C35DA0C341BDC04F11404EA
:1006A800C4F1200500FA05F320FA04F001FA05F276
:1006B80040EA020001F0004221F0004110EBD37043
:1006C80021FA04F642EB06015EEA430E08BF20EA6F
:1006D800D37070BDC4F10C04C4F1200500FA04F312
:1006E80020FA05F001FA04F240EA020001F00041A4
:1006F80010EBD37041F100015EEA430E08BF20EA17
:10070800D37070BDC4F1200500FA05F24EEA020E5E
:1007180020FA04F301FA05F243EA020321FA04F08D
:1007280001F0004121FA04F220EA020000EBD37044
:100738005EEA430E08BF20EAD37070BD94F0000F44
:100748000FD101F00046400041EB010111F4801F78
:1007580008BF013CF7D041EA060195F0000F18BF29
:10076800704703F00046520043EB030313F4801F65
:1007780008BF013DF7D043EA0603704794EA0C0F1F
:100788000CEA135518BF95EA0C0F0CD050EA410635
:1007980018BF52EA4306D1D181EA030101F00041B2
:1007A8004FF0000070BD50EA410606BF10461946DA
:1007B80052EA430619D094EA0C0F02D150EA0136E6
:1007C80013D195EA0C0F05D152EA03361CBF104627
:1007D80019460AD181EA030101F0004141F0FE41C6
:1007E80041F470014FF0000070BD41F0FE4141F44A
:1007F800780170BD70B54FF0FF0C4CF4E06C1CEA4A
:1008080011541DBF1CEA135594EA0C0F95EA0C0FFE
:1008180000F0A7F8A4EB050481EA030E52EA0335B9
:100828004FEA013100F088804FEA03334FF08055DA
:1008380045EA131343EA12634FEA022245EA111507
:1008480045EA10654FEA00260EF000419D4208BFB8
:10085800964244F1FD0404F5407402D25B084FEA65
:100868003202B61A65EB03055B084FEA32024FF411
:1008780080104FF4002CB6EB020E75EB030E22BF6E
:10088800B61A754640EA0C005B084FEA3202B6EB2E
:10089800020E75EB030E22BFB61A754640EA5C00DD
:1008A8005B084FEA3202B6EB020E75EB030E22BF6D
:1008B800B61A754640EA9C005B084FEA3202B6EB6E
:1008C800020E75EB030E22BFB61A754640EADC002D
:1008D80055EA060E18D04FEA051545EA16754FEA8F
:1008E80006164FEAC30343EA52734FEAC2025FEAAD
:1008F8001C1CC0D111F4801F0BD141EA00014FF03C
:1009080000004FF0004CB6E711F4801F04BF01430C
:100918000020B4F1FD0C88BFBCF5E06F3FF6AFAE28
:10092800B5EB030C04BFB6EB020C5FEA500C50F1B8
:10093800000041EB045170BD0EF0004E4EEA11313B
:1009480014EB5C04C2BFD4EB0C0541EA045170BD42
:1009580041F480114FF0000E013C90E645EA060E86
:100968008DE60CEA135594EA0C0F08BF95EA0C0FB4
:100978003FF43BAF94EA0C0F0AD150EA01347FF4FC
:1009880034AF95EA0C0F7FF425AF104619462CE7D3
:1009980095EA0C0F06D152EA03353FF4FDAE104636
:1009A800194622E750EA410618BF52EA43067FF487
:1009B800C5AE50EA41047FF40DAF52EA43057FF417
:1009C800EBAE12E74FF0FF3C06E000BF4FF0010C22
:1009D80002E000BF4FF0010C4DF804CD4FEA410C86
:1009E8007FEA6C5C4FEA430C18BF7FEA6C5C1BD053
:1009F80001B050EA410C0CBF52EA430C91EA030FD4
:100A080002BF90EA020F0020704710F1000F91EA30
:100A1800030F58BF994208BF90422CBFD8176FEAFE
:100A2800E37040F0010070474FEA410C7FEA6C5CCC
:100A380002D150EA013C07D14FEA430C7FEA6C5CD3
:100A4800D6D152EA033CD3D05DF8040B704700BFFF
:100A58008446104662468C461946634600E000BF4D
:100A680001B5FFF7B7FF002848BF10F1000F01BD1F
:100A78004DF808EDFFF7F4FF0CBF012000205DF8EA
:100A880008FB00BF4DF808EDFFF7EAFF34BF01206F
:100A980000205DF808FB00BF4DF808EDFFF7E0FF08
:100AA80094BF012000205DF808FB00BF4DF808ED59
:100AB800FFF7CEFF94BF012000205DF808FB00BFC0
:100AC8004DF808EDFFF7C4FF34BF012000205DF8A2
:100AD80008FB00BF4FEA410C7FEA6C5C02D150EA88
:100AE800013C0AD14FEA430C7FEA6C5C02D152EA1E
:100AF800033C02D14FF0000070474FF001007047EF
:100B08004FEA410212F5001215D211D56FF478732D
:100B1800B3EB625212D94FEAC12343F0004343EAD0
:100B2800505311F0004F23FA02F018BF40427047AB
:100B38004FF00000704750EA013005D111F0004035
:100B480008BF6FF0004070474FF00000704700BFCB
:100B580053B94AB9002908BF00281CBF4FF0FF311C
:100B68004FF0FF3000F082B9ADF1080C6DE904CE0A
:100B780000F006F8DDF804E0DDE9022304B0704770
:100B88002DE9F04F8C460C460546099E002B4FD1A7
:100B98008A4217466BD9B2FA82FEBEF1000F0BD01B
:100BA800CEF1200520FA05F501FA0EF345EA030C0B
:100BB80002FA0EF700FA0EF5390CBCFBF1F0BAB2E6
:100BC80001FB10C300FB02F84FEA154C4CEA034442
:100BD800A04509D9E41900F1FF3380F02881A04528
:100BE80040F2258102383C44C8EB0404B4FBF1F31D
:100BF80001FB134C03FB02F2ACB244EA0C418A42FB
:100C080009D9C91903F1FF3480F00F818A4240F2F3
:100C18000C81023B39448A1A43EA00400021002E25
:100C280063D022FA0EF2002386E80C00BDE8F08FAC
:100C38008B4207D9002E56D0002186E811000846BD
:100C4800BDE8F08FB3FA83F1002940F09380A34206
:100C580002D3824200F2FE80851A64EB03039C46AD
:100C68000120002E41D086E82010BDE8F08F12B98F
:100C78000127B7FBF2F7B7FA87FEBEF1000F36D1AE
:100C8800E41B4FEA17481FFA87F90121B4FBF8F370
:100C980008FB134409FB03F24FEA154C4CEA0444E1
:100CA800A24207D9E41903F1FF3002D2A24200F2AE
:100CB800D3800346A41AB4FBF8F008FB104809FBDC
:100CC80000F9ACB244EA0842914507D9D21900F1BB
:100CD800FF3402D2914500F2BA802046C9EB0202E5
:100CE80040EA03409BE731463046BDE8F08F07FAFB
:100CF8000EF7CEF1200C24FA0CF34FEA1748B3FB99
:100D0800F8FA1FFA87F908FB1A3520FA0CFC04FADE
:100D18000EF40AFB09FB4CEA040C4FEA1C4242EAB7
:100D280005439B4500FA0EF50AD9DB190AF1FF3293
:100D380080F08B809B4540F28880AAF1020A3B44F0
:100D4800CBEB0303B3FBF8F008FB103300FB09F40B
:100D58001FFA8CFC4CEA03439C4207D9DB1900F1CB
:100D6800FF326ED29C426CD902383B441C1B40EACD
:100D78000A418BE7C1F1200E8B4022FA0EFC4CEAA7
:100D8800030C24FA0EF74FEA1C49B7FBF9FA1FFACD
:100D98008CF309FB1A7720FA0EF88C400AFB03F54E
:100DA80048EA04044FEA144848EA0747BD4202FAF1
:100DB80001F200FA01FB09D917EB0C070AF1FF3021
:100DC80041D2BD423FD9AAF1020A67447F1BB7FB53
:100DD800F9F509FB157705FB03F3A4B244EA0747C5
:100DE800BB4208D917EB0C0705F1FF3027D2BB42ED
:100DF80025D9023D674445EA0A40A0FB0289FF1A4B
:100E08004F4545464C4614D329D066B3BBEB050382
:100E180067EB040707FA0EFECB40CF404EEA030308
:100E280086E888000021BDE8F08F2346F3E61846DF
:100E3800DAE6B8EB020569EB0C040138E5E705468C
:100E4800D9E7104692E78246C0E7924678E702382B
:100E58003A4443E7084604E7023B3C442AE7C345D3
:100E6800E7D33C46D1E73146BDE8F08F704700BF75
:100E7800002103E00B4B5B58435004310A480B4BED
:100E880042189A42F6D30A4A02E0002342F8043B89
:100E9800084B9A42F9D303F059FD04F03DFB03F0E7
:100EA800ADFC70471494000800000020CC06002018
:100EB800CC060020643C0020FEE710B5044601F093
:100EC800E7F84FF47A73B0FBF3F000F087F80022EC
:100ED80021464FF0FF3000F041F8002010BD00001F
:100EE800064A08B51368032043F01003136000F0A6
:100EF80023F80F20FFF7E1FF002008BD0020024083
:100F0800024A136801331360704700BFE8060020E7
:100F1800014B1868704700BFE806002013B5019020
:100F2800FFF7F6FF0446FFF7F3FF019B001B98420B
:100F3800F9D302B010BD0000074A0002D36800F4DC
:100F4800E06023F4E0631B041B0C43F0BF6343F42D
:100F580000330343D360704700ED00E0174B30B512
:100F6800DB68C3F30223C3F107041D1D042C28BF4B
:100F78000424062D4FF0010505FA04F404F1FF34AA
:100F88008CBF033B00230C409C4005FA03F3013B54
:100F98001A40002842EA04024FEA0212AFBF00F1E9
:100FA8006040074B00F00F00D2B2A5BFD2B200F5E7
:100FB80061401A5480F8002330BD00BF00ED00E006
:100FC80014ED00E04209012300F01F0003FA00F0CD
:100FD800014B43F82200704700E100E00138B0F10E
:100FE800807F0AD2064B074AF021586082F8231006
:100FF8000020072298601A6070470120704700BFE0
:1010080010E000E000ED00E0044B04281A680CBF73
:1010180042F0040222F004021A60704710E000E077
:101028002DE9F74F002426466A4BDFF8B0E1DFF8D8
:10103800B0C101220D68B24032EA050540F0C28015
:101048004D68122D2BD00ED8022D25D004D84DB3C3
:10105800012D30D1CC682EE0032D1BD0112D2AD1C3
:10106800CC68043427E065451CD006D8DFF87481C5
:10107800454517D008F5803809E0DFF86C8145450B
:1010880010D008F5803845450CD0A8F5801845459E
:1010980011D107E000240EE0CC6808340BE0CC68DE
:1010A8000C3408E08C682CB1012C0CBF0261426141
:1010B800082400E00424FF2A97BF8346A6F1080508
:1010C800D0F80090B50084BFD0F80490AD004FF080
:1010D8000F0808FA05FA29EA0A0904FA05F588BF8B
:1010E80000F1040B49EA0505CBF80050D1F804904B
:1010F80019F0805F66D0384D374FAD6906F0030AA6
:1011080045F00105BD61BD694FEA8A0A05F0010590
:101118000195019D26F0030505F1804505F580350B
:10112800D5F808B0A7F5843708FA0AF8B8422BEAC8
:10113800080816D007F58067B84215D007F580670C
:10114800B84214D007F58067B84213D007F5806716
:10115800B84212D070450CBF4FF0050B4FF0060B8C
:101168000DE04FF0000B0AE04FF0010B07E04FF0E5
:10117800020B04E04FF0030B01E04FF0040B0BFAF5
:101188000AFA4AEA080AC5F808A01D6819F4803F57
:1011980014BF154395431D605D6819F4003F14BFE3
:1011A800154395435D609D6819F4801F14BF15436E
:1011B80095439D60DD6819F4001F14BF2A4325EA92
:1011C8000202DA600136102E7FF433AF03B0BDE8B7
:1011D800F08F00BF0004014000100240001C0140D5
:1011E80000002110000011100000311002B909049C
:1011F80001617047C3685940C16070472DE9F041EB
:10120800044686B000285FD090F8E93303F0FF0267
:101218001BB980F8E82303F02FFC25466E4603230C
:1012280055F8100B84F8E93300F0D2FF0FCD0FC644
:101238002B68271D336097E80E00206800F0B8FF80
:101248000021206800F0CEFF0021234622460846F0
:1012580004F11005012682F82810918601310F2922
:1012680082F8296082F82B009063D063106402F141
:101278002002F0D10022114683F808229A86013212
:101288000F2A83F8091283F80B12C3F81812C3F84F
:101298001C12C3F820124FF0000803F12003EBD111
:1012A8006E460FCD0FC62B68336097E80E00206896
:1012B80000F09AFF012384F82480206884F8E93339
:1012C80001F04BFA404600E0012006B0BDE8F0818D
:1012D80090F8E83310B5012B04460ED0012180F8B0
:1012E800E81303F0F0FC206801F035FA206800F0FC
:1012F80066FF002084F8E80310BD022010BD90F8B6
:10130800E82310B5012A04460BD0012280F8E8230F
:1013180084F82410006801F018FA002084F8E80323
:1013280010BD022010BD38B5044648B2002801F0AF
:101338007F05B5BF04EB451104EB4111283101F5D8
:101348000271C00F0D704870CB7094F8E8330A61D1
:10135800012B09D0012384F8E833206800F058FFF6
:10136800002084F8E80338BD022038BD4BB2002BBA
:1013780001F07F02B5BF00EB421100EB41112831AB
:1013880001F50271DB0F10B50A704B7090F8E83365
:101398000446012B09D0012380F8E833006801F0E6
:1013A800A9F8002084F8E80310BD022010BD70B52C
:1013B800044601F07F0670012518C5F82032002385
:1013C800C5F81C22C5F8243285F8093285F8086268
:1013D80094F8E833012B0CD0012300F50270211892
:1013E80084F8E833206801F0D1F9002084F8E80394
:1013F80070BD022070BD01F07F0100EB4110B0F814
:101408002402704770B5044601F07F067001251864
:101418002B6400236B640123EA6385F8293085F87F
:10142800286094F8E8239A420AD02830211884F8D2
:10143800E833206801F0AAF9002084F8E80370BDB9
:10144800022070BD2DE9F3410446006801F087F9D8
:10145800000416D4206801F082F9410540F1DB81CF
:1014680022682046B2F8443023F480631B041B0C26
:10147800A2F8443003F037FB00212046FFF73FFF76
:10148800C9E10023ADF8043004F57B77ADF80630E8
:101498002068B0F844309BB2ADF804301B04D9D5AD
:1014A800BDF8045015F00F0540F0B580BDF80410E4
:1014B800038801F0100189B259BB23F4E14323F0FA
:1014C80070031B041B0C0380B0F8503094F82820DC
:1014D8009BB203EBC20300EB4300D0F80434E26B89
:1014E800C3F3090363641344E363204603F0F0FA8B
:1014F80094F82430002BCBD0226C002AC8D194F861
:101508002430216843F08003A1F84C3084F824206B
:10151800BEE79BB2ADF80630BDF806301A051ED5F9
:10152800B0F8503094F808229BB203EBC20300EBEA
:101538004303D3F80C34B4F80C22C3F30903C4F8FA
:101548002432394601F0F2F922682046138823F044
:1015580070031B051B0D138003F0ACFA98E7BDF868
:1015680006301B0494D5038823F070031B051B0D5C
:101578000380B0F8503094F808229BB203EBC20302
:1015880000EB4303D3F80C34C3F30903C4F8243243
:1015980063B1B4F80C22D4F81C1201F0C7F9D4F8DE
:1015A8001C22D4F824321344C4F81C3200212046EB
:1015B80003F086FA2268D4F81852B2F850103E2D7B
:1015C80089B201F1060102F580600BD9C5F34F130A
:1015D800EE0604BF03F1FF339BB26FEAC3636FEA01
:1015E800534306E0C5F34F03ED0744BF01339BB2F5
:1015F8009B029BB240F81130138823F4804323F0F8
:1016080070031B041B0C83F4405343F4004343F062
:10161800800313803CE730F825309BB2ADF80630E4
:10162800BDF80630190477D530F825304FEA45184B
:1016380023F070031B051B0D20F8253004EB08016F
:1016480091F81232ABB9B0F8503091F808229BB239
:1016580003EBC20300EB4303D3F80C64C6F309069B
:10166800DEB3B1F80C223346D1F81C1201F05EF952
:1016780033E091F8083230F82320DB0012F4804F71
:10168800B0F8502092B2134400EB430308D0D3F8CB
:101698000464C6F309067EB13346B1F80E2207E0AA
:1016A800D3F80C64C6F3090636B13346B1F81022F4
:1016B800D1F81C1201F03AF904EB080393F8081268
:1016C800226832F8213023F0F0031B051B0D43F488
:1016D800004343F0C00322F8213004EB0801D1F89D
:1016E8002432D1F81C223344C1F82432D1F82032F4
:1016F8003244C1F81C221BB1D1F81802864206D226
:10170800A04498F80812204603F0DAF904E091F8AA
:1017180008122046FFF74BFEBDF806301A067FF583
:10172800B7AE20686E0130F82530A11923F4E143E3
:1017380023F070031B041B0C20F8253091F832307D
:101748000235B3B9B0F8503091F828209BB203EBBA
:10175800C20300EB4303D3F8043404EB4515C3F389
:1017680009036B60002B38D08A8DC96B00F0FDFF30
:1017780033E091F8283030F82320DB0012F0400FD6
:10178800B0F8502092B2134400EB430309D0D3F8C9
:10179800043404EB4515C3F309036B606BB1CA8DC0
:1017A80008E0D3F80C3404EB4515C3F309036B6068
:1017B8001BB10A8EC96B00F0D8FFA31993F8281043
:1017C800226832F8213023F0F0031B051B0D43F487
:1017D800404343F0800322F821302068A119B0F873
:1017E800502091F8283092B202EBC30300EB430378
:1017F800D3F80424CB6BC2F309024A641A440B6C75
:10180800CA63204691F8281013B903F061F93FE63E
:10181800FFF7F8FD3CE6206800F0A1FF470408D573
:101828002268B2F8443023F480431B041B0CA2F84E
:101838004430206800F093FF860408D52268B2F887
:10184800443023F400531B041B0CA2F844302068D6
:1018580000F085FFC50418D522682046B2F840304C
:1018680023F004031B041B0CA2F840304FF43D4343
:10187800A2F8403003F054F92268B2F8443023F457
:1018880080531B041B0CA2F84430206800F067FF4B
:1018980000051DD52068B0F8443023F400631B040C
:1018A8001B0CA0F84430B0F840309BB243F008035A
:1018B800A0F84030B0F840309BB243F00403A0F8E1
:1018C800403000F04CFFC10402D4204603F018F960
:1018D800206800F044FF82050BD522682046B2F844
:1018E800443023F400731B041B0CA2F8443003F0AB
:1018F800F6F8206800F033FFC30508D52268B2F86F
:10190800443023F480731B041B0CA2F8443002B04B
:10191800BDE8F08138B54BB2002B01F07F05B5BFAB
:1019280000EB451100EB4111283101F5027101224C
:10193800DB0FEDB28A700D704B7090F8E8330446F7
:1019480093420ED080F8E823006800F08BFE25B99A
:1019580004F57B71206800F006FF002084F8E80396
:1019680038BD022038BD38B54BB2002B01F07F02DC
:10197800B5BF00EB421100EB4111283101F50271AE
:10198800DB0F00248C700A704B7090F8E833054622
:10199800012B09D0012380F8E833006800F093FE9A
:1019A80085F8E843204638BD022038BD11F0800F85
:1019B8001BBF01F07F0100EB411000EB4110283004
:1019C80008BF00F5027012B98272838004E0012218
:1019D800C3801B0C827203810020704703682DE9C5
:1019E800F743DC07054603D42B68980773D4F2E065
:1019F800B94C636803F00C03042B07D0636803F049
:101A08000C03082B16D16368D90313D54FF40033A0
:101A180093FAA3F2226893FAA3F3B3FA83F303F0D9
:101A28001F0322FA03F3DA07DED56B68002BDBD13C
:101A380001202DE26B68B3F5803F15D06BB92368A0
:101A48004FF4003623F480332360236823F4802383
:101A58002360FFF75DFA07462FE0B3F5A02F236850
:101A680006D143F480232360236843F4803305E0E0
:101A780023F480332360236823F480232360FFF753
:101A880047FA07464FF4003696FAA6F3226896FA04
:101A9800A6F3B3FA83F303F01F0322FA03F3DB0779
:101AA800A2D4FFF735FAC01B6428EDD90320EFE173
:101AB800FFF72EFAC01B6428F8D896FAA6F3226816
:101AC80096FAA6F3B3FA83F303F01F0322FA03F39B
:101AD800D807EDD488E7804C636813F00C0F07D063
:101AE800636803F00C03082B21D16368D9031ED463
:101AF800022393FAA3F2226893FAA3F3B3FA83F3C7
:101B080003F01F0322FA03F3DA0702D52B69012B2E
:101B18008ED12368F82292FAA2F2B2FA82F26969A7
:101B280023F0F80301FA02F21343236053E02A6911
:101B380001237AB393FAA3F2B2FA82F2920002F185
:101B4800844202F584021360FFF7E2F90746022691
:101B580096FAA6F36048226896FAA6F3B3FA83F3D6
:101B680003F01F0322FA03F3DB0705D4FFF7D0F9CC
:101B7800C01B0228ECD999E70368F82292FAA2F26E
:101B8800B2FA82F2696923F0F80301FA02F2134308
:101B9800036020E093FAA3F3B3FA83F39B0003F105
:101BA800844303F584031A60FFF7B2F90746022657
:101BB80096FAA6F3226896FAA6F3B3FA83F303F02B
:101BC8001F0322FA03F3D90705D5FFF7A1F9C01BB4
:101BD8000228EDD96AE72B681A0746D5AA693E4C50
:101BE80001233E4912B393FAA3F2B2FA82F241F802
:101BF8002230FFF78DF90746022696FAA6F396FAE1
:101C0800A6F3626A96FAA6F3B3FA83F303F01F0306
:101C180022FA03F3DB0705D4FFF77AF9C01B022881
:101C2800EBD943E70120FFF779F91EE093FAA3F314
:101C3800B3FA83F341F82320FFF76AF9074602262F
:101C480096FAA6F396FAA6F3626A96FAA6F3B3FA98
:101C580083F303F01F0322FA03F3D80705D5FFF730
:101C680057F9C01B0228EBD920E72B68590704D481
:101C7800EA69002A40F08180D8E0174C184EE369E1
:101C880043F08053E361E36903F080530193019BC0
:101C9800336843F480733360FFF73AF907463368D3
:101CA800DA0505D4FFF734F9C01B6428F7D9FDE637
:101CB800EB68012B1CD0ABB9236A022623F0010381
:101CC8002362236A374623F004032362FFF720F9CF
:101CD80041F28839804648E00010024080044242C0
:101CE80000700040052B236A06D143F004032362E9
:101CF800236A43F0010305E023F001032362236A0A
:101D080023F004032362FFF703F902268146B04655
:101D180041F2883796FAA6F396FAA6F30BB1226A2F
:101D280000E0626A98FAA8F3B3FA83F303F01F039A
:101D380022FA03F3DB079BD4FFF7EAF8C9EB0000AC
:101D4800B842E7D9B2E6626A97FAA7F3B3FA83F31F
:101D580003F01F0322FA03F3D80789D5FFF7D8F851
:101D6800C8EB000048453FF6A1AE96FAA6F396FAEE
:101D7800A6F3002BE7D0226AE6E7474C636803F036
:101D88000C03082B3FF454AE022A4FF080735CD149
:101D980093FAA3F3B3FA83F39B0003F1844303F5A7
:101DA800840300221A60FFF7B3F880464FF00076EC
:101DB80096FAA6F3384F226896FAA6F3B3FA83F395
:101DC80003F01F0322FA03F3D90731D42E6AB6F5BC
:101DD800803F05D1796821F40030A9680143796012
:101DE80063686A6A23F474133243134363604FF0E1
:101DF800807393FAA3F3B3FA83F39B0003F184434C
:101E080003F5840301221A60FFF782F806464FF0B3
:101E1800007595FAA5F3226895FAA5F3B3FA83F34A
:101E280003F01F0322FA03F3DA0708D500202FE096
:101E3800FFF76EF8C8EB00000228B9D936E6FFF7BD
:101E480067F8801B0228E4D930E693FAA3F3B3FAC3
:101E580083F39B0003F1844303F5840300221A6093
:101E6800FFF756F806464FF0007595FAA5F3226875
:101E780095FAA5F3B3FA83F303F01F0322FA03F3E9
:101E8800DB07D3D5FFF744F8801B0228EDD90DE610
:101E980003B0BDE8F08300BF001002401F4B70B5CF
:101EA80003F110052E4686B002AC22461868596820
:101EB800083303C2AB421446F7D13388184CADF847
:101EC8000430606800F00C03082B24D14FF4701321
:101ED80093FAA3F3B3FA83F300F4701222FA03F32C
:101EE80006AA134413F8101CC30311D562684FF4F3
:101EF800003393FAA3F3B3FA83F002F40033C34038
:101F080006AA134413F8140C064BB3FBF0F000E0D8
:101F18000548484300E0034806B070BD908F0008AC
:101F28000010024000127A0000093D00544A2DE9D1
:101F3800F0411368064603F007038B420D460AD3A7
:101F480031688C0714D54F48436823F0F002B36812
:101F5800134343600CE0136823F007030B4313603B
:101F6800136803F007039942EAD00120BDE8F08125
:101F7800C80706D4424A136803F007039D424AD3B0
:101F880053E072683F4C012A02D14FF4003304E059
:101F9800022A0CBF4FF00073022393FAA3F12168C1
:101FA80093FAA3F3B3FA83F303F01F0321FA03F3BD
:101FB800D907DAD5636841F2883823F003031A4356
:101FC8006260FEF7A5FF73680746012B0CD16368B2
:101FD80003F00C03042BCDD0FEF79AFFC01B40453D
:101FE800F5D90320BDE8F081022B0FD1636803F017
:101FF8000C03082BBED0FEF78BFFC01B4045F5D95C
:10200800EFE7FEF785FFC01B4045EAD8636813F089
:102018000C0FF6D1AEE7136823F007032B431360C8
:10202800136803F007039D429FD13168154C11F0E6
:10203800040F05D0636823F4E062F3681343636018
:102048000B0706D56368326923F4605343EAC20379
:102058006360FFF723FF6368F02292FAA2F2B2FAF4
:1020680082F203F0F003D340074AD35CD840074B11
:1020780018600F20FEF721FF0020BDE8F08100BFA7
:10208800002002400010024099900008180100202A
:10209800014B1868704700BF1801002003682DE93C
:1020A800F743DC07054664D53E4C3F4EE36943F0F1
:1020B8008053E361E36903F080530193019B336824
:1020C80043F480733360FEF723FF07463368D8056F
:1020D80006D4FEF71DFFC01B6428F7D903205DE076
:1020E800236A304813F4407306D1236A23F44072FC
:1020F8006B68134323623CE06A6802F440729342BF
:10210800F3D0016A4FF4803321F4407793FAA3F2B5
:10211800B2FA82F2254E4FF0010E46F822E093FA09
:10212800A3F3B3FA83F30022C90746F82320076212
:10213800DBD5FEF7EDFE02268046374641F28839A8
:1021480096FAA6F396FAA6F30BB1226A00E0626A41
:1021580097FAA7F3B3FA83F303F01F0322FA03F302
:10216800DA07C2D4FEF7D4FEC8EB00004845E7D929
:10217800B4E72868830706D50A494B6823F4404228
:10218800AB6813434B6010F0100007D005490020DE
:102198004B6823F480026B6913434B6003B0BDE8BE
:1021A800F08300BF0010024000700040000442426B
:1021B80084B001A880E80E0004B000207047B0F891
:1021C80040309BB243F43D43A0F8403000207047B4
:1021D800B0F8403023F474535B045B0CA0F8403033
:1021E800002070470020704784B010B503AC84E825
:1021F8000E00BDE810400123A0F840300023A0F8ED
:10220800403004B0A0F84430A0F850301846704769
:10221800CB7830B50A78032B2BD8DFE803F0021F00
:102228000C1530F822309BB223F4EC4323F07003F2
:1022380043F400731BE030F8223023F4EC4323F01E
:1022480070031B041B0C12E030F822309BB223F4FD
:10225800EC4323F0700343F4C06308E030F8223005
:102268009BB223F4EC4323F0700343F4806320F81B
:1022780022300C7830F8243044F4004223F0F00384
:102288001B051B0D42F08002134320F824308B7A83
:102298000D78002B74D14A788B883AB3B0F8502067
:1022A8005B0892B202EBC5045B0000EB4404C4F87F
:1022B80000340A7830F822305B060BD530F822302B
:1022C80023F0F0031B051B0D43F4004343F0C00348
:1022D80020F822300A7830F8223023F4E04323F043
:1022E80040031B041B0C83F02003FBE0B0F85040B4
:1022F8005B08A4B204EBC50404345B0000F58062FB
:1023080042F81430B0F850400B780D69A4B204EBD1
:10231800C3043E2D04F106040BD9C5F34F13ED0693
:1023280004BF03F1FF339BB26FEAC3636FEA534301
:1023380006E0C5F34F03ED0744BF01339BB29B0290
:102348009BB242F814300A7830F822305C040BD57E
:1023580030F8223023F0F0031B051B0D43F44043F3
:1023680043F0800320F822300A7830F8223023F432
:10237800804323F070031B041B0C83F44053B1E02B
:1023880030F8253000F5806423F4F8731B051B0D25
:1023980043F4014343F0800320F82530B0F850306F
:1023A8000A789BB203EBC203CA885208520044F869
:1023B8001320B0F850300A789BB203EBC2030A89A5
:1023C80004335208520044F813204B780A78002B43
:1023D80046D130F822305B040BD530F8223023F098
:1023E800F0031B051B0D43F4404343F0800320F822
:1023F80022300A7830F822305D060BD530F82230CA
:1024080023F0F0031B051B0D43F4004343F0C00306
:1024180020F822300A7830F8223023F0F0031B0528
:102428001B0D43F4004343F0C00320F822300A7820
:1024380030F8223023F4804323F070031B041B0C74
:1024480083F4405343F4004343F0800320F82230E0
:102458000A7830F8223023F0C0031B051B0D41E039
:1024680030F822305C040BD530F8223023F0F0032A
:102478001B051B0D43F4404343F0800320F8223032
:102488000A7830F822305B060BD530F8223023F07A
:10249800F0031B051B0D43F4004343F0C00320F871
:1024A80022300A7830F8223023F0F0031B051B0D88
:1024B80043F4404343F0800320F822300A7830F890
:1024C800223023F0C0031B051B0D43F4004343F0E7
:1024D800800320F822300A7830F8223023F0F00305
:1024E8009B049B0C43F4004343F0800320F8223004
:1024F800002030BD10B58C7A4A780B781CBB82B1AD
:1025080030F8232052065BD530F8232022F0F00261
:102518001205120D42F4004242F0C00220F82320B6
:102528004EE030F82320540440F18D8030F8232009
:1025380022F0F0021205120D42F4404242F08002ED
:1025480020F823207FE0002A42D130F823205204CB
:102558000BD530F8232022F0F0021205120D42F4B8
:10256800404242F0800220F823200A7830F82230D6
:102578005C060BD530F8223023F0F0031B051B0D49
:1025880043F4004343F0C00320F822300A7830F8BF
:10259800223023F0F0031B051B0D43F4004343F0E6
:1025A800C00320F822300A7830F8223023F0F003F4
:1025B8009B049B0C43F4004343F0800320F8223033
:1025C8000A7830F8223023F0C0031B051B0D41E0C8
:1025D80030F8232052040BD530F8232022F0F002E3
:1025E8001205120D42F4404242F0800220F82320E6
:1025F8000A7830F822305B060BD530F8223023F009
:10260800F0031B051B0D43F4004343F0C00320F8FF
:1026180022300A7830F8223023F0F0031B051B0D16
:1026280043F4404343F0800320F822300A7830F81E
:10263800223023F0C0031B051B0D43F4004343F075
:10264800800320F822300A7830F8223023F0F00393
:102658009B049B0C43F4004343F0800320F8223092
:10266800002010BD0A787AB903889BB223F480430E
:1026780023F0400383F4805383F0100343F40043B2
:1026880043F0800303801CE04B7853B130F82230CC
:1026980023F4E04323F040031B041B0C83F01003D6
:1026A80009E030F8223023F4804323F070031B0440
:1026B8001B0C83F4805343F4004343F0800320F859
:1026C8002230002070474B780A78DBB130F822308E
:1026D8005B060BD530F8223023F0F0031B051B0DE9
:1026E80043F4004343F0C00320F822300A7830F85E
:1026F800223023F4E04323F040031B041B0C83F037
:1027080030031AE030F822305B040BD530F8223061
:1027180023F0F0031B051B0D43F4404343F08003F3
:1027280020F822300A7830F8223023F4804323F04E
:1027380070031B041B0C83F4405343F4004343F021
:10274800800320F822300020704711B98023A0F8B8
:102758004C30002070470020704700207047B0F8C8
:10276800440080B2704700207047013300F5806054
:1027780010B55B1000EB42020024A34205D031F8EB
:10278800020B22F824000134F7E710BDF8B504461F
:1027980048780E4601288B690A698F7A57D11D46F9
:1027A800934283BF9D1A8D611546002398BF8B61A4
:1027B800ABB27FB98A8820464969FFF7D6FFB4F8DB
:1027C800503032789BB203EBC20304EB4303C3F8E7
:1027D800045430E00A78204634F82210D20011F070
:1027E800400FB4F8501089B20A4404EB4202C2F810
:1027F8000454716914BF3289F288FFF7B6FF737801
:10280800327853B934F8223023F0F0031B051B0D3E
:1028180043F4004343F0C0030BE0012B0BD134F821
:10282800223023F0F0031B051B0D43F4404343F013
:10283800800324F82230327834F8223023F4E0433D
:1028480023F040031B041B0C83F0300366E0934223
:102858008BBF9B1A00228B618A6188BF1346097857
:1028680027B300BBB4F850203E2B92B202EBC10153
:1028780001F1020104F580600BD9C3F34F12DD06A4
:1028880004BF02F1FF3292B26FEAC2626FEA5242AB
:1028980006E0C3F34F02DF0744BF013292B292024F
:1028A80092B240F81120727831780ABBB4F85020FF
:1028B8003E2B92B202EBC10101F1060104F58060E2
:1028C8000BD9C3F34F12DD0604BF02F1FF3292B2F7
:1028D8006FEAC2626FEA524206E0C3F34F02DB07B7
:1028E80044BF013292B2920292B240F811200AE03B
:1028F800012A08D1B4F8502092B202EBC10104EBCE
:102908004101C1F80434327834F8223023F480438A
:1029180023F070031B041B0C83F4405343F400435F
:1029280043F0800324F822300020F8BD013300F57D
:10293800806010B55B1000EB42020024A34205D072
:1029480052F8240021F814000134F7E710BDD0F83C
:1029580018321BB10020C3F81402704702207047D8
:10296800D0F81C3210B5D0F818425BB194F80002C8
:10297800FF2807D09B6894F8012221469847FF2337
:1029880084F80032002010BD4323038000487047BC
:10299800000000204323038000487047CC0000203B
:1029A8004323038000487047880000200A230380DF
:1029B800004870477C00002038B50546D0F818421A
:1029C80002F076F9D5F81832C4F80C024BB1D5F8F4
:1029D8001C3204F50371DB68D4F804029847002020
:1029E80038BD022038BD0000F8B50F78064617F04C
:1029F80060030C4622D0202B27D1CA884B78BAB165
:102A08003906D0F8185209D5D0F81C1218468F6824
:102A18002946B847E2882946304614E085F800324E
:102A2800E388294685F80132E28800F0A7FB0CE02C
:102A3800D0F81C0284681846A04706E04B780A2B99
:102A480003D10349012200F084FB0020F8BD00BF38
:102A5800EC06002010B50446812102F0C5F80121DA
:102A6800204602F0C1F88221204602F0BDF8D4F8D1
:102A7800183253B1D4F81C325B689847D4F818025E
:102A880002F020F90023C4F81832002010BDF8B570
:102A9800037C044643B94FF400730222812102F0FB
:102AA80093F84FF4007305E040230222812102F0DD
:102AB8008BF8402302220121204602F085F80823E2
:102AC80003228221204602F07FF84FF4077002F0BB
:102AD800F5F80646C4F81802E8B1D4F81C32002507
:102AE8001B689847277CC6F81452C6F818524FB985
:102AF8004FF40073D6F804220121204602F0CAF8E8
:102B08003846F8BD4023D6F804220121204602F0B9
:102B1800C1F82846F8BD0120F8BD19B1C0F81C124B
:102B28000020704702207047D0F818320020C3F800
:102B38000812C3F810227047D0F818320020C3F8E2
:102B480004127047D0F8182210B572B1D2F81442A6
:102B5800012364B9C2F814328121B2F81032D2F8D4
:102B6800082202F089F8204610BD022010BD184640
:102B780010BDD0F8182210B562B1047C14B94FF416
:102B8800007300E04023D2F80422012102F082F809
:102B9800002010BD022010BD08B580B1D0F8143255
:102BA80013B10023C0F8143209B1C0F81012012380
:102BB80080F8FC31027001F0B7FF002008BD022048
:102BC80008BD19B1C0F814120020704702207047E0
:102BD80008B501F0EBFF002008BD08B5D0F81432A5
:102BE8000BB9022008BD1B6898470028F9D108BD19
:102BF80008B5D0F814325B689847002008BD38B58E
:102C0800044600F50275284600F0E2F80123C4F8EE
:102C1800F43194F80812B4F80E32C4F8F83101F01F
:102C28001F03012B0CD006D3022B0ED129462046B8
:102C380000F010FA0EE02946204600F0E9F809E015
:102C48002946204600F0EEF904E001F08001204614
:102C580001F0D8FF002038BD38B50446154609BB39
:102C6800D0F8F431032B26D1D0F80C11D0F810216C
:102C780091420AD98B1A9A4228BF1A46C0F80C31D9
:102C880092B2294600F089FA15E0D0F814321B698F
:102C980023B190F8FC21032A00D19847204600F080
:102CA80084FA08E0D0F814329B6923B190F8FC212B
:102CB800032A00D19847002038BD70B51346044652
:102CC8000E4600293CD1D0F8F421022A30D1C5693A
:102CD800026A954207D9AA1AC261194692B200F04F
:102CE80045FA334611E08369B3FBF2F502FB15356B
:102CF8008DB99A420FD8D0F8F82193420BD22A46C0
:102D080000F034FA2B46C4F8F8511A461946204602
:102D180001F0C0FF0CE0D4F81432DB682BB194F852
:102D2800FC21032A01D120469847204600F048FAA2
:102D380094F80032012B0CD1002384F8003208E00B
:102D4800D0F814325B6923B190F8FC21032A00D132
:102D58009847002070BD38B504460022114640252A
:102D6800402301F031FF2B46C4F810510022802186
:102D7800204601F029FF012384F8FC31D4F81832E9
:102D880025622BB1D4F8143221795B682046984724
:102D9800002038BD01740020704790F8FC3180F89D
:102DA800FD31042380F8FC310020704790F8FD3194
:102DB80080F8FC310020704708B590F8FC21032A00
:102DC80004D1D0F81432DB6903B19847002008BD5C
:102DD8000B7803704B784370CA788B7803EB022327
:102DE80043804A790B7903EB02238380CA798B7974
:102DF80003EB0223C380704710B50446802101F01D
:102E080001FF2046BDE81040002101F0FBBE000094
:102E180073B54B7804460D46092B00F2F980DFE8BC
:102E280013F0CB00E200F700DE00F70075000A009F
:102E3800F700BB0091004B881A0A013A062A00F2F3
:102E4800E780DFE812F007000B001700E500E50057
:102E58003C004700D0F810321B6817E0027CD0F81D
:102E680014320AB99B6A00E0DB6A0DF10600984744
:102E780002233AE0DBB2052B00F2CA80DFE803F058
:102E8800030B0F13171BD0F810325B680DF1060106
:102E9800207C98472AE0D0F810329B68F6E7D0F8F3
:102EA8001032DB68F2E7D0F810321B69EEE7D0F891
:102EB80010325B69EAE7D0F810329B69E6E7037CD9
:102EC800002B40F0A580D0F814320DF106005B6BA2
:102ED80098470BE0037C002B40F09A80D0F814321E
:102EE8000DF106001B6B984707234370BDF80620B9
:102EF800002A00F09180EB88002B00F08D809A4228
:102F080028BF1A460146ADF8062064E08B88002BDE
:102F18007ED1CB88002B7BD190F8FC318E78032BA7
:102F280006F07F0674D080F8FE61314601F096FE07
:102F3800204600F03AF90EB1022300E0012384F89C
:102F4800FC3169E08978364E0129317060D890F8F3
:102F5800FC31022B02D0032B08D059E0002953D0B2
:102F680001210323416080F8FC310FE031B90223CD
:102F780080F8FC314160FFF73BFE45E041680129DC
:102F880042D0C9B2FFF734FE317861602046FFF7BE
:102F980024FE022838D13BE0CA88012A38D190F8AB
:102FA800FC31022B03D0032B32D1011D13E0014663
:102FB800002341F8083F0EE090F8FC31023B012B5A
:102FC80026D80123C360D0F804320BB10323C360B1
:102FD800022204F10C01204600F0BBF81CE04B88EB
:102FE800012B19D108E090F8FC31023B012B0FD8D6
:102FF8004B88012B10D10023C4F80432D4F81432C2
:1030080029469B6820469847204600F0CEF803E002
:1030180029462046FFF7F0FE002002B070BD00BF31
:10302800ED06002038B590F8FC310446032B0D4618
:103038000CD10B79012B09D8D0F814329B6898472A
:10304800EB882BB9204600F0B0F801E0FFF7D4FE7A
:10305800002038BD70B50A788E8802F06002202AF8
:1030680004460D46F3B204D1D0F814329B68984751
:1030780051E04A78012A10D026D3032A4BD190F880
:10308800FC21022A27D0032A43D14A8892B95E0636
:1030980010D0194601F0B6FD0CE090F8FC21022A88
:1030A80019D0032A35D14A88AABB590608D019462F
:1030B80001F0B6FDD4F8143229469B68204698479B
:1030C800204600F072F826E090F8FC21022A02D08F
:1030D800032A06D01DE05A061DD0194601F092FDBC
:1030E80019E003F07F0516F0800F00EB051519466F
:1030F80014BF143505F5827501F0A0FD10B1012348
:103108002B6000E0286002222946204600F021F8C2
:1031180001E0FFF771FE002070BD30B5C0B1054673
:103128002B1A15F8014BDBB2002CF9D15B000233E6
:1031380013800B7003234B700138022310F8015FD2
:1031480035B15A1CCD54D2B20233DBB28C54F5E7F8
:1031580030BD134610B50222C0F8F42183610A4637
:10316800C361002101F088FD002010BD08B5134699
:103178000A46002101F080FD002008BD134610B565
:103188000322C0F8F421C0F808310A46C0F80C310F
:10319800002101F07FFD002010BD08B513460A4646
:1031A800002101F077FD002008BD08B50423C0F810
:1031B800F43100231A46194601F05EFD002008BDCF
:1031C80008B50523C0F8F43100231A46194601F062
:1031D80061FD002008BD08B501F0C4F8012803D03E
:1031E800BDE8084000F0E8B808BD00F108034360F6
:1031F8004FF0FF32C36003610023826003607047B1
:1032080000230361704743689A684B608A609A6834
:1032180051609960036808610133036070470A6868
:1032280030B5531C01D1036907E000F108035C685D
:103238002568AA4201D32346F9E75A684A60916093
:103248008B605960036808610133036030BD4168D1
:10325800826803698A60826851605968884208BF39
:103268005A6000220261186801381860704700002F
:1032780006480068006880F3088862B661B6BFF344
:103288004F8FBFF36F8F00DF00BF000008ED00E035
:103298004FF0807300E90A00034B40F8202C40F8F7
:1032A8000C3C4038704700BF01330008074B1968D1
:1032B8000868B0E8F00F80F30988BFF36F8F4FF00C
:1032C800000080F311884EF00D0E7047E82F0020A3
:1032D800044B4FF080521A60BFF34F8FBFF36F8FCC
:1032E800704700BF04ED00E0EFF311804FF050018C
:1032F80081F311887047002008B5054B1B6801331E
:1033080002D0FFF7F1FFFEE7FFF7EEFFFEE700BF91
:103318001001002008B5FFF7E7FF094A13680133D9
:103328001360BFF34F8FBFF36F8F012B07D1054B8E
:103338001B6813F0FF0F02D0FFF7D6FFFEE708BDAA
:103348001001002004ED00E080F3118870470000B0
:1033580008B5074B186810B9FFF7C6FFFEE7013834
:10336800186018B9BDE80840FFF7EEBF08BD00BFF8
:1033780010010020EFF30980BFF36F8F0D4B1A681F
:1033880020E9F00F10602DE908404FF0500080F35D
:10339800118800F0D5FE4FF0000080F31188BDE8D9
:1033A800084019680868B0E8F00F80F30988BFF38F
:1033B8006F8F7047E82F002008B5FFF795FF00F0E2
:1033C8003BFD18B1044B4FF080521A600020BDE855
:1033D8000840FFF7B9BF00BF04ED00E0F0B53F4B70
:1033E80085B01B683E4A9842019088BF01931368D4
:1033F8003C4D23F001031360019993682C6801394F
:1034080004FB0134384E0832336817469C4288BFA3
:10341800E41A72B600F08CFF314B344A50B939685F
:103428001160196841F0010119602B68013B1360B4
:1034380062B650E014602E4A002111601A6804A890
:1034480042F001021A60019B40F8043D01F07EF948
:10345800039B23B1BFF34F8F30BFBFF36F8F01A81A
:1034680001F075F91E4A136823F00101116062B674
:1034780013F4803F1E490FD00B682A683168134443
:10348800013B1B1B8B4201D39A4200D2531E174AA1
:103498001360019C013C0BE02B680A6801995943B1
:1034A8008A1AB2FBF3F404FB03339B1A0F4A136026
:1034B8000F4B00221A60FFF72DFF094A20461368B8
:1034C80043F00103136000F0A3FC2B68074A013B9B
:1034D8001360FFF73DFF05B0F0BD00BF00070020F7
:1034E80010E000E0F0060020F406002014E000E000
:1034F80018E000E00D4B0E491A684FF47A73B2FBDE
:10350800F3F30B606FF07F41B1FBF3F1B2FBF2F222
:103518000848013B01602D21B1FBF2F206490A601F
:10352800064A1360064B07221A60704718010020EC
:10353800F006002000070020F406002014E000E058
:1035480010E000E013B51F4B00211A78D2B20192A7
:10355800FF221A701B781C4ADBB28DF803309DF8E5
:10356800033003F050031370184B07221A609DF8BC
:103578000300541E000608D59DF8032001215200BF
:10358800D2B28DF803202246F1E701B11A601A6819
:10359800120202F4E0621A60019B0A4ADBB213705D
:1035A8000B4B1A6842F470021A601A6842F07042B3
:1035B8001A60FFF79FFF074B00221A60FFF758FEBB
:1035C800FFF79AFE00E400E0F8060020FC06002061
:1035D80020ED00E01001002008B5EFF305830F2B64
:1035E80008D90A4A9B5C0A4A12789A4202D9FFF71C
:1035F8007BFEFEE7074B084A1B68126803F4E0638A
:10360800934202D9FFF770FEFEE708BDF0E300E041
:10361800F80600200CED00E0FC06002010B50F4B6A
:103628001A68824201D21346FAE759685C18A04228
:1036380001BF406809181846596041684418A242F9
:1036480007D1074C2468A2421FBF546812680919A1
:1036580041609842026018BF186010BD0C07002036
:10366800080700202DE9F041044600F0C9FB3C4959
:103678003C4D0B680BBB3C4A56071FBFD01D20F0C2
:10368800070002F52053024614BF1B1A4FF42053BB
:103698001344364E083B23F0070300207060326065
:1036A800586018600B60981A1360314B50601860AE
:1036B800304B18604FF000432B602F68274240D1F1
:1036C800002C3FD004F1080358071CBF23F0070360
:1036D8000833002B33D0274A16689046B34230D8B7
:1036E800224A15686868834203D809688D4206D162
:1036F80027E02C68002CF8D02A462546F2E72968EE
:1037080014681160C21A102A04F1080409D9E818CB
:10371800410702D0FFF7E8FDFEE742606B60FFF764
:103728007DFF13496A680868B31A8342C8F80030F5
:1037380038BF0B60174300236F602B6002E01C4604
:1037480000E0002400F012FC0CB900F0FEFF630753
:1037580002D0FFF7C9FDFEE72046BDE8F08100BFB3
:1037680008070020142F0020140700200C07002051
:10377800182F00200407002010B5044610B3124A81
:1037880050F8043C1268134202D1FFF7ADFDFEE782
:1037980050F8081C11B1FFF7A7FDFEE723EA020362
:1037A80040F8043C00F02CFB084A54F8041C136849
:1037B800A4F108000B441360FFF730FFBDE8104088
:1037C80000F0D4BB10BD00BF142F00200407002058
:1037D80038B51546026C044632B9056845BB4068E1
:1037E80000F01AFE656024E06DB9806801F0BAFE49
:1037F800A268236C13446268A360934218D32368B9
:103808002846A36015E0C06801F0ACFE236CE268AE
:103818005B4221681A448A42E2603EBF62689B1894
:10382800E360022D04D1A36B13B1A36B013BA36327
:103838000020A36B0133A36338BD03461A6C10B490
:10384800084662B1D9685C681144A142D96028BFB2
:10385800196810BC28BFD960D96801F083BE10BCB4
:10386800704738B50446FFF755FD04F12405A36CED
:10387800002B0BDD636A4BB1284600F0D7FC08B17A
:1038880000F050FDA36C013BA364F0E74FF0FF3359
:10389800A364FFF75DFDFFF73DFD04F11005636CC0
:1038A800002B0BDD23694BB1284600F0BFFC08B1A3
:1038B80000F038FD636C013B6364F0E74FF0FF33C1
:1038C8006364BDE83840FFF743BD38B50D4604468C
:1038D80010B9FFF709FDFEE7FFF71CFD206CE36B4D
:1038E80022684343D1181B1A13446160E360002126
:1038F8004FF0FF33A163A2606364A36455B92369E1
:1039080083B104F1100000F091FC01280AD1FFF7FF
:10391800DFFC07E004F11000FFF767FC04F1240066
:10392800FFF763FCFFF714FD012038BDF8B50D461D
:103938001746064610B9FFF7D7FCFEE711B1484312
:10394800013000E008465430FFF78CFE044630B1E1
:103958000DB9206006E000F15403036002E0FFF7B0
:10396800C3FCFEE7E663256401212046FFF7ADFFAF
:1039780084F850702046F8BD2DE9F0410E46904677
:103988001D46044610B9FFF7AFFCFEE721B9036CEA
:1039980013B1FFF7A9FCFEE7022D05D1E36B012B5C
:1039A80002D0FFF7A1FCFEE7FFF716FEFFF79CFC2D
:1039B800A26BE36B07469A4201D3022D1AD12A461D
:1039C80031462046FFF704FFA36C01330DD1636A2B
:1039D80073B104F1240000F029FC48B1B8F1000FDC
:1039E80006D00124C8F8004005E0A36C0133A364A5
:1039F800012400E000243846FFF7A6FC2046BDE875
:103A0800F0812DE9F04385B0884601929946044635
:103A180010B9FFF769FCFEE721B9036C13B1FFF792
:103A280063FCFEE700F09EFC10B9019E0EB178E041
:103A380000260027FFF76EFCA36B3BB341462046E8
:103A4800E568FFF7FAFEB9F1000F12D1A36B013B4D
:103A5800A363236813B900F023FD606023698BB169
:103A680004F1100000F0E2FB01280BD1FFF730FC55
:103A780008E0636AE5602BB104F1240000F0D6FB8E
:103A88000028F3D1FFF764FC01204DE0019D1DB92A
:103A9800FFF75EFC284647E016B902A800F004FCD0
:103AA800FFF756FC00F0ACF9FFF734FC636C013308
:103AB80008BF6764A36C013308BFA764FFF748FC1D
:103AC80001A902A800F000FC20BBFFF723FCA56BAE
:103AD800FFF73EFCC5B9236833B9FFF71BFC6068E4
:103AE80000F050FCFFF734FC019904F1240000F0C9
:103AF8006BFB2046FFF7B5FE00F038FA08B1012647
:103B080098E7FFF7E5FBFAE72046FFF7AAFE00F083
:103B18002DFAF4E72046FFF7A4FE00F027FA00206C
:103B280002E0FFF7E1FBFEE705B0BDE8F083000027
:103B3800074B1B68D86A48B9064B1B68012B06D887
:103B4800054A064B1B681068181A70470020704712
:103B5800E82F0020482F0020F42F0020EC2F002011
:103B6800064A13681968064B11B94FF0FF3203E093
:103B78001268D268D26852681A607047242F0020F1
:103B8800EC2F00200E4B10B51A68044650600D4A01
:103B98001268904207D2BDE810400B4A10681968B5
:103BA8000431FFF73CBB094A106819680431FFF774
:103BB80036FB074B1A68944238BF1C6010BD00BF23
:103BC800E82F0020F42F0020F82F0020242F0020B9
:103BD800EC2F00202DE9F84F0A9E9A460F4615460D
:103BE800DDF82C800C9B814610B9FFF77DFBFEE7C2
:103BF800062E02D9FFF778FBFEE73BB99000FFF7E6
:103C080031FD8346002800F0AA8000E09B4664202E
:103C1800FFF728FD044688B1AD002A46C0F830B049
:103C2800A521584601F0C4FC236B043D1D4425F032
:103C380007057B1E04F133020F3705E05846FFF7EE
:103C48009BFD8CE0BB4206D013F8011F02F8011F50
:103C580019780029F6D14FF0000B271D384684F853
:103C680043B0E662E664C4F850B0FFF7C9FA04F15D
:103C78001800FFF7C5FAC6F10703C4F85CB0246161
:103C8800A3616462C4F854B0C4F858B084F860B052
:103C9800524649462846FFF7FBFA2060B8F1000F64
:103CA80001D0C8F80040FFF735FB2F4A2F4D1368A5
:103CB800DFF8DC90013313602B683BBB2C60126883
:103CC800012A2BD1984609EB080008F11408FFF7E0
:103CD8008CFAB8F18C0FF6D1DFF8B8A0DFF8B8800D
:103CE8005046FFF782FA4046FFF77FFA2048FFF771
:103CF8007CFA2048FFF779FA1F48FFF776FA1F4B3E
:103D0800C3F800A01E4BC3F8008007E01D4B1B68DA
:103D180023B92B68DB6A9E4228BF2C601A4A1B49CC
:103D2800136801331360E26A63640B68012404FAC0
:103D380002F0034314200B6000FB02903946FFF7A2
:103D480062FAFFF705FB0F4B1B682BB12B68DB6A88
:103D58009E4201D9FFF7BCFA2046BDE8F88F4FF024
:103D6800FF30BDE8F88F00BF14300020E82F002096
:103D7800FC2F0020D42F00202C300020242F0020DE
:103D8800F82F0020282F002010300020403000207D
:103D9800482F0020302F00201830002030B5002494
:103DA80085B00394029401940094234680220F491D
:103DB8000F48FFF70FFF0128054610D1FFF794FAC7
:103DC8000C4B4FF0FF321A600B4B1D600B4B1C6005
:103DD80000F0B6FC05B0BDE83040FFF7B3BB10B942
:103DE800FFF782FAFEE705B030BD00BFA28F0008DA
:103DF800A5400008EC2F0020282F0020F42F0020D9
:103E0800024A136801331360704700BFF02F002087
:103E180008B5074B07491A68096802448A4202D95B
:103E2800FFF762FAFEE71A681044186008BD00BF81
:103E3800F42F0020EC2F0020414B2DE9F74F1B6891
:103E4800002B3CD13F4B1A6801321A601D688DB9AE
:103E58003D4B1A68126812B1FFF746FAFEE73B4A73
:103E68001968106818601160394A136801331360C3
:103E7800FFF776FE374C4FF0000B236801949D4204
:103E8800354E364F0BD3DFF8C080DFF8DC90D8F81A
:103E980000201268E2B9019B4FF0FF321A603A68BD
:103EA800D16A14224A43B258022A2D4A28BF4FF039
:103EB800010B1268002A39D100F046FC36E0284A86
:103EC8004FF0000B13680133136000F03DFC2DE048
:103ED800D8F80020D268D46861688D4202D2019B6C
:103EE8001960DCE704F1040A5046FFF7B0F9A16A4B
:103EF80019B104F11800FFF7AAF9E06AD9F800101F
:103F0800012303FA00FE4EEA01014FF0140EC9F82E
:103F180000100EFB00605146FFF775F93868E16A3A
:103F2800C26A914228BF4FF0010BB0E70D4A1268F0
:103F3800002A18BF4FF0010B584603B0BDE8F08FB8
:103F4800F02F0020F42F0020242F0020F82F00202D
:103F5800202F0020EC2F0020482F0020E82F0020E1
:103F6800442F002044300020403000202DE9F84341
:103F78002A4C236813B9FFF7B7F9FEE7FFF7CAF928
:103F88002368013B236023680BB1002441E0244BE4
:103F98001B68002BF9D0234D234EDFF89C802B683B
:103FA80003B3EB680127DC6804F1040904F1180085
:103FB800FFF74DF94846FFF74AF9E26A336807FA0E
:103FC80002F114200B4300FB028049463360FFF7DF
:103FD8001AF9164BE26A1B68DB6A9A42DFD3144B64
:103FE8001F60DAE7134C236833B9114B1C68012CA6
:103FF800CBD1FFF76DF90CE00D4D01262368002B9E
:10400800F3D0FFF719FF00B12E602368013B23604E
:10401800F4E7FFF79DF92046BDE8F883F02F00206C
:1040280014300020FC2F002040300020E82F002012
:1040380044300020442F0020482F002038B518B9FC
:10404800BDE83840FFF744B9104B1B6813B1FFF7C0
:104058004BF9FEE7FFF7D4FE0D4B0E4D1B68C41855
:1040680028680430FFF7F3F840B92B680A49D86A82
:104078000A680123834022EA03030B602046FFF706
:1040880081FDFFF773FF0028DAD038BDF02F00203C
:10409800F42F0020E82F002040300020F8B5224DF2
:1040A8002E46224F2B68F3B1FFF7AAFE3C68FFF7B4
:1040B8005DFF002CF6D0FFF72DF91C4BDB68DC68A0
:1040C800201DFFF7C4F81A4A1368013B13603368D0
:1040D800013B3360FFF73CF9206BFFF74DFB2046AF
:1040E800FFF74AFBDEE7134B1B68012B01D9FFF7EB
:1040F800EFF800F028FBFFF71BFD0128D1D9FFF7E7
:104108007FFE0D4B1A680D4B1B689A4202D2FFF7CF
:10411800EBF8FEE7FFF70CFD012801D9FFF75EF980
:10412800FFF724FFBDE700BF2C2F0020D42F00206D
:1041380014300020482F0020EC2F0020F42F0020FE
:104148001B4B10B51A681B4B0AB101222DE01A60EF
:1041580000F0F7FA184A1468A04205D9174B1968F5
:104168008B6D1B1B03448B65154B10601B68B3FAE2
:1041780083F3DBB2C3F11F0314225A4311498C584D
:10418800881814B9FFF7B0F8FEE744680832646885
:104198000A44944208BF6268446008BF426014221F
:1041A80002FB03135B68DA68044B1A6010BD00BF9A
:1041B800F02F0020443000201C2F0020E82F002082
:1041C80040300020482F002038B50D4610B9FFF7C1
:1041D8008BF8FEE7114C21681831FFF720F82068AA
:1041E8000430FFF734F840B923680D49D86A0A68E3
:1041F8000123834022EA03030B606B1C06D121686C
:1042080008480431BDE83840FEF7FDBF064B186882
:104218002844BDE83840FFF7B5BC00BFE82F0020B0
:10422800403000202C300020F42F0020C36870B5E7
:10423800DC6814B9FFF758F8FEE704F118052846BA
:10424800FFF705F8124B1B6883B9261D3046FEF7A9
:10425800FEFF1049E56A0A680123AB4013430B606F
:104268000D4B1420314600FB053001E029460B4870
:10427800FEF7C9FF0A4BE26A1B68DB6A9A4285BFF0
:10428800084B012000201860FFF76AFC70BD00BFD2
:10429800F02F002040300020482F0020FC2F002065
:1042A800E82F00204430002008B510B9FFF71CF8AB
:1042B800FEE7034B1B680360024B1B68436008BDA5
:1042C800202F0020F42F002038B50D46044610B9E1
:1042D800FFF70AF8FEE711B9FFF706F8FEE7FFF760
:1042E80019F80E4B19682B685A1C10D00C4A206814
:1042F80012689042626801D091420AD2881A8342B9
:1043080007D9521A13442B602046FFF7CDFF00242B
:1043180000E00124FFF71CF8204638BDF42F0020E8
:10432800202F0020014B01221A60704744300020E2
:10433800084B186860B9084B1B6853B9074B1868D5
:10434800074B01381B68834214BF012002207047C5
:1043580000207047FC2F002044300020143000203B
:104368002C300020054B1B6833B1054B1B68002B14
:104378000CBF02200020704701207047282F002022
:10438800F02F00202DE9F041044600283BD01F4DB6
:10439800C36A2A68D26A934235D282691C4E002ABF
:1043A800A8BF2A684FF01407A8BFD26A07FB0363A7
:1043B800A4BFC2F10702826142699A4220D100F18A
:1043C80004084046FEF743FF124B48B9E06A4743EA
:1043D800F2592AB919680122824021EA02021A60B8
:1043E8002A680120D26A4146E2621C689040204354
:1043F8001860142000FB0260BDE8F041FEF703BF1F
:104408002B68DB6AC362BDE8F08100BFE82F00209B
:10441800482F002040300020F8B5044608B9002095
:10442800F8BD1C4B1B68984202D0FEF75DFFFEE703
:10443800036D13B9FEF758FFFEE7C16AC26C013B72
:1044480091420365EBD0002BE9D1051D2846FEF704
:10445800FEFE114E114A50B9E76A14217943735888
:104468002BB910680123BB4020EA03031360E36CF7
:104478001068C3F10701E362A161012404FA03F1A2
:1044880008431060142000FB03602946FEF7BBFEBA
:104498002046F8BDE82F0020482F0020403000209B
:1044A800044B1A681AB119680A6D01320A6518684E
:1044B800704700BFE82F0020BFF34F8F0549064B18
:1044C800CA6802F4E0621343CB60BFF34F8F00BFAA
:1044D800FDE700BF00ED00E00400FA052DE9F84310
:1044E800124C00250128256007D0114B03262360B4
:1044F800104B6360104BA36012E02E46D1F8008089
:10450800DFF8389059F835704146384601F0EAF836
:104518000135874204BF44F826700136032DF1D1D6
:10452800002344F826300148BDE8F8837C33002096
:10453800A78F0008AC8F0008B28F00080C90000805
:1045480010B5094C094801F09FF80949204601F0C7
:1045580037F80849204601F033F82046BDE81040F6
:10456800054901F02DB800BFD08F0008B98F0008A9
:10457800A78F0008AC8F0008B28F000810B504465A
:10458800FBF74EFE81B2204600F060FABDE810400D
:104598000120FFF753BD000008B5002201211020BB
:1045A800FFF7C4F9014B186008BD00BF4830002070
:1045B80010B5094C0949206800F086FD20680849B3
:1045C80000F0B1FD2068074900F0AAFD20680649FF
:1045D800BDE8104000F0AABD140100208545000880
:1045E80039460008E5440008C1440008094B07B5EE
:1045F800186860B100230DF107014FF0FF32FFF793
:1046080000FA054B9DF80710186800F011FE03B07A
:104618005DF804FB483000201401002008B5FFF7BE
:10462800ADFFBDE808400148FFF7A8BFCE8F0008DE
:104638002DE9F04107460E46DFF83480002458F88B
:1046480034103068E50001F027F838B9084B1D44EC
:104658006B684BB131463846984705E00134032C66
:10466800EDD10448FFF7DAFF0020BDE8F08100BF74
:104678000C900008D58F00080FB407B504A951F8AD
:10468800040B019102F06CF803B05DF804EB04B080
:104698007047000073B5002301930C4B1A681D4640
:1046A80032B9019B83B10A4B4FF080521A600BE07C
:1046B80004464618B442F4D02146002301AA2868CB
:1046C800FFF75AF90134F5E702B070BD4830002011
:1046D80004ED00E00C4B10B519680C4B0C48B1FB0D
:1046E800F3F1FFF7C9FF0B4B0B48198889B2FFF7A5
:1046F800C3FFBDE81040094B094819685A680833D8
:104708001B68FFF7B9BF00BF1801002040420F0027
:1047180024900008E0F7FF1F40900008E8F7FF1F0B
:104728005B90000808B50448FFF7A6FFBDE80840FD
:104738000248FFF7A1BF00BF8090000887900008DB
:104748007047002070477047704770477047704740
:1047580008B5FFF72DFFFFF749FFFCE708B5054C43
:104768002068FFF76BFC4FF400510348FCF742FD4B
:10477800F6E700BF903300200010014030B54FF439
:10478800803397B001220D930021022414930CA8C2
:104798004FF4E0130C920E91109213941593FDF7B9
:1047A8001DF900B1FEE70F2503904FF480630590D3
:1047B800214601A8019502940493FDF7B7FB00B1C7
:1047C800FEE710230B9006A80693FDF767FC044646
:1047D80000B1FEE7FDF75CFC4FF47A73B0FBF3F031
:1047E800FCF7FCFB0420FCF70FFC224629464FF09F
:1047F800FF30FCF7B3FB17B030BD000080B58CB0BC
:10480800FCF76EFB274BC8251D60FFF7B7FF264B4B
:104818004FF4C0419A69254842F010029A619A699A
:10482800002402F010020592059A9A69012742F0C5
:1048380020029A619A69022602F020020692069ADC
:104848009A6942F004029A619B69002203F004030A
:104858000793079BFCF7CAFC4FF4C04308A9134809
:10486800089309970B96FCF7DBFB00F095F8FFF728
:1048780093FE23462A460E49039402940194009716
:104888000C48FFF7A7F923464FF4FA720A49039434
:104898000294019400960948FFF79CF9FFF77EFA05
:1048A800FEE700BF903300200010024000100140D6
:1048B8008D90000865470008919000085947000846
:1048C800FEE77047FEE7FEE7FEE7FEE7704708B53C
:1048D800FCF716FBBDE80840FEF77DBC0148FCF775
:1048E800B1BD00BF40360020044B0246196809B923
:1048F80003491960186802441A6070474C30002058
:10490800643C00204FF0FF3070474FF400534B6079
:104918000020704701207047002070470020704732
:1049280037B50846002591B21446019500F08EF877
:10493800054A0195019B934203D8019B01330193DA
:10494800F8E7204603B030BD3F420F000F4B1A680E
:1049580042F001021A6059680D4A0A405A601A6802
:1049680022F0847222F480321A601A6822F48022BB
:104978001A605A6822F4FE025A604FF41F029A60C5
:10498800044B4FF000629A60704700BF001002406D
:104998000000FFF800ED00E010B5094C00220949BD
:1049A8002046FEF7F9F808492046FEF70AF920469E
:1049B8000649FEF7B2F82046BDE81040FEF708B9F0
:1049C800943300202C010020440000201C0100200A
:1049D800002070470020704770B505460C680D4EE2
:1049E8000D4B2246014630461C6000F0BBFD0B4AC9
:1049F8002146136830462344094C1360FFF74AFEEA
:104A080029462046FEF798F82046FEF7B2F800201F
:104A180070BD00BFFC350020B835002050300020A4
:104A28009433002010B5064C002206492046FEF7B4
:104A38007BF805492046FEF77FF8002010BD00BF2F
:104A480094330020FD350020BC35002010B5094CFA
:104A58000A46D4F81832D3F8143243B9014620462E
:104A6800FEF762F82046BDE81040FEF76BB801205B
:104A780010BD00BF9433002007B50D4B02689A4261
:104A880012D103F5DA33DA69142042F40002DA614C
:104A9800DB69002203F4000301930521019BFCF765
:104AA8005DFA1420FCF78EFA03B05DF804FB00BF32
:104AB800005C004000F57B71D0F81C04FEF79FB83D
:104AC80000EB4113D3F81C22D0F81C04FEF7C4B83D
:104AD80000EB4113DA6BD0F81C04FEF7EEB8D0F8FF
:104AE8001C04FEF769B910B504460121D0F81C046E
:104AF800FEF750F9D4F81C04BDE81040FEF72BB9B6
:104B080010B50446D0F81C04FEF747F9A36923B191
:104B1800024A136943F00603136110BD00ED00E07B
:104B2800D0F81C04FEF742B910B504461D491E48CA
:104B3800022308224FF0030EC0F81C4480E80E4000
:104B4800C4F8200200238361C3610362FCF756FBAB
:104B580008B1FFF7B5FE002211461823D4F8200249
:104B6800FCF724FF582300228021D4F82002FCF708
:104B78001DFFC02300228121D4F82002FCF716FF74
:104B88004FF4887300220121D4F82002FCF70EFFAD
:104B98004FF4807300228221D4F82002FCF706FF2C
:104BA800002010BD005C00404036002008B5D0F859
:104BB8002002FCF78DFB03289ABF024B185C0220E9
:104BC80008BD00BFA990000810B51C46D0F8200207
:104BD80013462246FCF7A7FB03289ABF014B185C33
:104BE800022010BDA990000808B5D0F82002FCF7F3
:104BF800BDFB03289ABF024B185C022008BD00BF0A
:104C0800A990000808B5D0F82002FCF783FE032815
:104C18009ABF024B185C022008BD00BFA99000088B
:104C280008B5D0F82002FCF79EFE03289ABF024B75
:104C3800185C022008BD00BFA99000080A06D0F839
:104C4800203245BF01F07F0103EB411303EB411311
:104C580093F82A0058BF93F80A02704708B5D0F8AD
:104C68002002FCF74CFB03289ABF024B185C022079
:104C780008BD00BFA990000808B5D0F82002FCF7CD
:104C8800C1FB03289ABF024B185C022008BD00BF75
:104C9800A990000808B5D0F82002FCF788FB032883
:104CA8009ABF024B185C022008BD00BFA9900008FB
:104CB80008B5D0F82002FCF79EFB08BD00487047F5
:104CC800543000207047704712230B80004870470B
:104CD8004C01002004230B80004870474801002045
:104CE80010B5044C0A4604482146FEF716FA204639
:104CF80010BD00BF603A0020AD90000810B5044C0C
:104D08000A4604482146FEF708FA204610BD00BFAF
:104D1800603A0020C090000810B5044C0A460448C8
:104D28002146FEF7FAF9204610BD00BF603A002080
:104D3800D690000810B5044C0A4604482146FEF7F0
:104D4800ECF9204610BD00BF603A0020E39000084F
:104D580010B5044C0A4604482146FEF7DEF9204601
:104D680010BD00BF603A0020EE900008F0B50024A6
:104D78000546234600F15406281990F8540028B92E
:104D88008C4217DA184601340346F5E78C4211DAEB
:104D9800581C3719072842F823700DDC2B1993F893
:104DA800543023B18C4201D00134F7E7F0BD8C4276
:104DB800EADBF0BD1846F0BD4FF0FF30F0BD13B58B
:104DC8000023B0F5803F02460093ADF8043016D2B8
:104DD8000A204AB1B2FBF0F400FB142230320DF87D
:104DE800032022460133F4E708460DEB0302194479
:104DF800884204D012F8013D00F8013BF8E7084664
:104E080000230B7002B010BD1FB504460B4968465D
:104E180000F060FC0DF102016E20FFF7D0FF084999
:104E280000F058FCC11C0720FFF7C9FF054900F036
:104E380051FC23686846984704B010BDFD900008EF
:104E4800FC9000080091000830B50C4685B010228F
:104E580000210546684600F0ABFB0D49684600F0A6
:104E680039FC002C06DD0DF102012046FFF7A7FFF3
:104E7800084906E00AD00DF102016042FFF79FFFE2
:104E8800054900F027FC2B686846984705B030BDF7
:104E9800FD900008009100080C910008F7B5D0F8C3
:104EA800CC30044613480D461646984700238DF823
:104EB80004308DF805302027D4F8BC309D420EDA36
:104EC800631993F8543013B18DF8043001E08DF86C
:104ED8000470D4F8CC3001A898470135ECE7CC34FD
:104EE8002046FFF791FF31462046FFF7ADFF03B09C
:104EF800F0BD00BF029100082DE9F047044600F11B
:104F08005406406C002305466219127932B1013209
:104F180015443F2DC8BF403D0133F5E7E56C91B915
:104F2800AB4272DB5B1B012204EB000898F80470AB
:104F3800002F6AD0934232D0013738443F28C8BF87
:104F480040380132F0E7002D4EDD013DE56404EB09
:104F5800000898F8047047B1AB4206D001373844CE
:104F68003F28C8BF4038013BF1E7C3193F2B04F184
:104F7800040900F1010103DC3A464944304609E0DE
:104F8800C0F13F052A464944304600F0EBFA49464D
:104F98007A1B701900F0E6FA98F8043025E0C31976
:104FA80001353F2BE56400F1010A04F1040508DC32
:104FB80065220021304600F0FBFA3A4605EB0A016B
:104FC800DCE7C0F13F0965220021304600F0F0FA25
:104FD8004A4605EB0A01304600F0C4FAC9EB07025D
:104FE800294606EB0900D5E7134604F1CC00C4F8BE
:104FF800BC30C4F8C030FFF707FFD4F8C020204603
:10500800BDE8F0470021FFF749BFBDE8F087000081
:10501800D0F8C03010B5002B04461EDDD0F8CC30D7
:105028000E489847D4F8C010D4F8BC2004F15403B3
:10503800521A481E01321944184400F09EFAD4F856
:10504800C0300021013BC4F8C030D4F8BC30E218AD
:10505800013B82F85410C4F8BC3010BD069100081A
:1050680070B51546D0F8BC2004465319642B0E467B
:1050780027DCD4F8C01054306B18521A0144184475
:1050880000F07BFA00221046AA42D4F8C0300ADAAF
:10509800B15C13442029234414BF83F8541083F8C7
:1050A80054000132F0E7D4F8BC202B442A44C4F859
:1050B800C030C4F8BC200023144484F854300120C4
:1050C80070BD002070BD000070B504460D46652215
:1050D8000021543000F06CFA40220021201D00F01D
:1050E80067FA00236364A364E364C4F8BC30C4F8BB
:1050F800C030C4F8C430C4F8C830C4F8D030064B47
:10510800C4F8CC501B6805482365A847D4F8CC30B0
:10511800206DBDE87040184760010020CE8F000860
:10512800C0F8C8107047C0F8C4107047C0F8D01055
:10513800704700002DE9F0410446D0F8CC3088B023
:1051480039489847D4F8BC506B1E3D2B38D8626C50
:10515800A318197951B1A36C9A42A2EB0303D4BFE7
:105168003F3303F1FF339D4255DA00E01D71A06C17
:1051780004F15408C0F13F06B54204F1040700F1F8
:10518800010003DA2A464146384408E032464146DF
:10519800384400F0E7F93846AA1B08EB060100F08E
:1051A800E1F9A36CE21815711D446B1C3F2BCABFB3
:1051B8003F3DA364A564A36C002223441A71E264F2
:1051C8006A46D4F8BC102046FFF7D0FD421C08D12F
:1051D800D4F8CC3015489847D4F8CC3012489847C2
:1051E80006E0002804DDD4F8C4300BB169469847BE
:1051F8000025D4F8CC30206D9847C4F8BC50C4F8CA
:10520800C0506522294604F1540000F0D1F9E56444
:1052180008B0BDE8F0810A44531C3F2B01DDA2F120
:105228003F03636493E700BFCE8F00080E91000828
:105238002DE9F04145788AB004460191002D54D0FB
:10524800CBB25B2B01D101232EE00178012932D1A9
:10525800412B01D1002101E0422B02D1FFF74CFE86
:105268004CE1432B0DD1D0F8C020D0F8BC309A4285
:1052780080F24481CC30FFF7E7FDD4F8C030013329
:1052880030E0442B0DD1D0F8C030002B40F33681EC
:105298004FF0FF31CC30FFF7D7FDD4F8C030013BD9
:1052A80020E0372B02D10223237029E1382B40F06C
:1052B80025810323F8E77E2B40F02081022904D1C1
:1052C800CC30FFF7A1FD00230CE0032940F0168144
:1052D800D0F8C030D0F8BC10CC30C91AFFF7B4FDF4
:1052E800D4F8BC30C4F8C03008E10A2900F00881BD
:1052F8001ADC052900F0B4800EDC022900F0CB800E
:10530800032900F0E180012940F0E380CC30FFF769
:105318007BFDC4F8C050F3E0082900F0CE8023DC00
:10532800062900F0A880D4E0102900F0C08010DC25
:105338000D2916D00E2900F0BC800B2940F0C98039
:10534800D0F8CC3070489847D4F8C030C4F8BC3096
:10535800D6E01B2978D07F2900F0AF80152975D0B9
:10536800B7E0FFF7E7FECBE0D0F8C830002B00F03D
:10537800C78002AAD0F8C010FFF7F8FCD4F8C030F4
:105388000746234493F8533033B90AAB5F4A03EB1B
:10539800800343F8202C0137D4F8C83002A93846D6
:1053A800984705460068002800F0AA806B6813B18A
:1053B800012300260CE0FAF733FF064628E02A44CA
:1053C80052F8042C895D925D8A4207D132B10136C8
:1053D80055F823109A000029F1D106E0D4F8CC3012
:1053E8004B489847A5F1040801E00133F0E758F865
:1053F800040FD4F8CC3028B19847D4F8CC304548BD
:105408009847F4E742489847D4F8CC30206D98473D
:105418009EB10AAB03EB870757F8240CFAF700FF95
:105428002968321A01442046FFF71AFE6B6823B92F
:10543800012238492046FFF713FE04F1CC00FFF79C
:10544800E3FCD4F8C02009E0012358E0D4F8C020D8
:10545800002A03DD2046FFF7DBFDF7E7002149E0DE
:10546800D0F8C030D0F8BC10CC30C91AFFF7ECFC2B
:10547800D4F8BC300CE0D0F8C020D0F8BC309A4248
:105488003EDA0121CC30FFF7DFFCD4F8C03001331D
:10549800C4F8C03034E0D0F8C0308BB34FF0FF31DF
:1054A800CC30FFF7D1FCD4F8C030013BF0E72946F7
:1054B80000E00121FFF720FD22E02046FFF7A8FDCC
:1054C800D4F8C020114615E0D0F8D030C3B19847C1
:1054D80016E0202903D1D4F8BC3013B910E01F29F5
:1054E8000EDD012201A92046FFF7BAFD40B1D4F82C
:1054F800C020511E2046FFF7D1FC01E00023637055
:105508000AB0BDE8F08100BF029100085A90000877
:10551800CE8F0008339100080E4B70B51E460E4C16
:105528000025E41AA410A54204D056F8253098475F
:105538000135F8E703F01CFD084B094C1E46E41A38
:10554800A4100025A54204D056F825309847013507
:10555800F8E770BD0C9400080C9400080C9400083F
:105568001094000810B5431E0A44914204D011F863
:10557800014B03F8014FF8E710BD884210B501EB65
:10558800020301D8421E0BE09842FBD28118D21ABE
:10559800D34204D013F8014D01F8014DF8E710BDCE
:1055A800994204D011F8014B02F8014FF8E710BDF9
:1055B80003460244934202D003F8011BFAE77047FE
:1055C8000FB40A4B13B51C6824B1A36913B920465C
:1055D80002F068F805AB049AA1682046019300F030
:1055E8009BF802B0BDE8104004B070475802002094
:1055F80030B5054689B008460C46FAF711FE1E4B31
:105608000590069301231844079304AB01930223E2
:1056180004940390029325B1AB6913B9284602F0AC
:1056280041F8AB69AC6813B9284602F03BF8134B54
:105638009C4201D16C6808E0114B9C4201D1AC68D6
:1056480003E0104B9C4208BFEC68B4F90C309A0494
:1056580006D4626E43F4005322F40052A3816266BA
:1056680001AA2146284602F0A3F9002814BF4FF0EA
:10567800FF300A2009B030BD599000089892000800
:10568800B8920008D8920008024B01461868FFF744
:10569800AFBF00BF580200200D4B30B51D6810F891
:1056A800013BEA18527802F00302012A11F8012B93
:1056B80008BF2033AC18647804F00304012C08BF39
:1056C80020329B1A01D1002AE9D1184630BD00BF0B
:1056D80064010020034611F8012B03F8012B002A6E
:1056E800F9D17047F0B5037863B90B78002B18BF70
:1056F8000020F0BD15F8012F62B114F8017F304683
:105708009742F7D00346461C007810B14D1E5C1E28
:10571800F0E7F0BD1846F0BD2DE9F04FBDB08B465F
:1057280009921C461F46814602F0B4FA03681846DF
:105738001193FAF775FD0A90B9F1000F05D0D9F861
:10574800183013B9484601F0ADFF964B9B4502D17E
:10575800D9F804B00AE0944B9B4502D1D9F808B0B7
:1057680004E0924B9B4508BFD9F80CB0BBF90C304C
:10577800980409D4DBF8642043F4005322F400525F
:10578800ABF80C30CBF86420BBF80C30190709D5FE
:10579800DBF8103033B1BBF80C3003F01A030A2BD6
:1057A80016D109E05946484600F0F0FF0028F2D02B
:1057B8004FF0FF3000F097BFBBF90E30002B07DB2E
:1057C8002346099A5946484600F094FF00F08BBFDB
:1057D80000232CAC1F942193209308930C930D93D2
:1057E800139312930E93099D2B4613F8012B1AB1AC
:1057F800252A01D01D46F7E7099BEE1A17D084E841
:105808004800219B33442193209B0133072B20938D
:1058180001DC083408E01FAA5946484603F0AFF9EE
:10582800002840F027862CAC0E9B33440E932B782F
:10583800002B00F0188600226B1C114615468DF8C7
:105848005F204FF0FF3A0B920A205E1C1B780996E6
:105858000693069B203B582B00F25B82DFE813F08F
:105868005C00590259026B00590259025902590247
:10587800590259026E005900590278007B005902FA
:105888009F00AA00AA00AA00AA00AA00AA00AA00CB
:10589800AA00AA005902590259025902590259028A
:1058A8005902590259025902DA0006015902060141
:1058B8005902590259025902BD00590259024B01B5
:1058C80059025902590259025902920159025902C0
:1058D80066005902590259025902590259025902DD
:1058E800590259025902D100610006010601060158
:1058F800C000610059025902C30059022D014D012F
:105908006801CE00590279015902940159025902DD
:10591800AC0101222B2102E009B901222021099BB7
:1059280093E7002A7BD08DF85F1078E00AB18DF8F4
:105938005F101F4B44E145F00105F0E73E683B1D51
:10594800002E0B9601DB1F46E9E71F4676420B96B1
:1059580045F00405E3E7099B5E1C1B782A2B069398
:1059680001D000230AE0D7F800A03B1DBAF1000FD0
:105978001F460996D3DA4FF0FF3AD0E70996069EFC
:10598800303E092E08D800FB0363099EB6461EF870
:10599800016B06967646F1E743EAE37A59E745F064
:1059A8008005BCE798920008B8920008D8920008D1
:1059B8005591000800230B93069B0B9E303B00FB80
:1059C80006330B93099B1E4616F8013B0693069B6C
:1059D8000996303B092BEFD93BE745F008059EE7D0
:1059E80045F040059BE7099B1B786C2B03D1099B6D
:1059F8000133099302E045F0100590E745F02005D2
:105A08008DE73B1D07933B6800268DF888308DF89D
:105A18005F608DE10AB18DF85F1045F01005AA06A8
:105A280008D5073727F0070707F108030793D7E9D1
:105A380000670EE015F0100F07F1040302D007937A
:105A48003E6805E03E6815F0400F079318BF36B270
:105A5800F717002E77F1000380F2DC8076424FF0D2
:105A68002D0367EB47078DF85F30D3E00AB18DF857
:105A78005F10073727F0070707F1080307933B680C
:105A88004FF0FF320C937B680C9F0D930D9B3846AB
:105A980023F000463146A94BFBF71CF8002840F0DC
:105AA800F0844FF0FF32A54B38463146FAF7F4FF41
:105AB800002840F0E68400F0FFBD0AB18DF85F10C1
:105AC80015F0200F07F1040307D00E993A68CE1796
